{
  "contractName": "FighterPredictionGame",
  "abi": [
    {
      "inputs": [],
      "stateMutability": "nonpayable",
      "type": "constructor"
    },
    {
      "anonymous": false,
      "inputs": [
        {
          "indexed": true,
          "internalType": "address",
          "name": "better",
          "type": "address"
        },
        {
          "indexed": false,
          "internalType": "uint8",
          "name": "fighter",
          "type": "uint8"
        },
        {
          "indexed": false,
          "internalType": "uint256",
          "name": "amount",
          "type": "uint256"
        }
      ],
      "name": "BetPlaced",
      "type": "event"
    },
    {
      "anonymous": false,
      "inputs": [
        {
          "indexed": false,
          "internalType": "uint8",
          "name": "winner",
          "type": "uint8"
        }
      ],
      "name": "MatchResult",
      "type": "event"
    },
    {
      "inputs": [
        {
          "internalType": "address",
          "name": "",
          "type": "address"
        }
      ],
      "name": "bets",
      "outputs": [
        {
          "internalType": "address",
          "name": "better",
          "type": "address"
        },
        {
          "internalType": "uint256",
          "name": "amount",
          "type": "uint256"
        },
        {
          "internalType": "uint8",
          "name": "fighter",
          "type": "uint8"
        }
      ],
      "stateMutability": "view",
      "type": "function"
    },
    {
      "inputs": [],
      "name": "bettingOpen",
      "outputs": [
        {
          "internalType": "bool",
          "name": "",
          "type": "bool"
        }
      ],
      "stateMutability": "view",
      "type": "function"
    },
    {
      "inputs": [],
      "name": "owner",
      "outputs": [
        {
          "internalType": "address",
          "name": "",
          "type": "address"
        }
      ],
      "stateMutability": "view",
      "type": "function"
    },
    {
      "inputs": [
        {
          "internalType": "uint256",
          "name": "",
          "type": "uint256"
        }
      ],
      "name": "participants",
      "outputs": [
        {
          "internalType": "address",
          "name": "",
          "type": "address"
        }
      ],
      "stateMutability": "view",
      "type": "function"
    },
    {
      "inputs": [],
      "name": "totalBetsFighter1",
      "outputs": [
        {
          "internalType": "uint256",
          "name": "",
          "type": "uint256"
        }
      ],
      "stateMutability": "view",
      "type": "function"
    },
    {
      "inputs": [],
      "name": "totalBetsFighter2",
      "outputs": [
        {
          "internalType": "uint256",
          "name": "",
          "type": "uint256"
        }
      ],
      "stateMutability": "view",
      "type": "function"
    },
    {
      "inputs": [
        {
          "internalType": "uint8",
          "name": "_fighter",
          "type": "uint8"
        }
      ],
      "name": "placeBet",
      "outputs": [],
      "stateMutability": "payable",
      "type": "function"
    },
    {
      "inputs": [],
      "name": "closeBetting",
      "outputs": [],
      "stateMutability": "nonpayable",
      "type": "function"
    },
    {
      "inputs": [
        {
          "internalType": "uint8",
          "name": "_winner",
          "type": "uint8"
        }
      ],
      "name": "finalizeMatch",
      "outputs": [],
      "stateMutability": "nonpayable",
      "type": "function"
    }
  ],
  "bytecode": "0x6080604052600160035f6101000a81548160ff021916908315150217905550348015610029575f80fd5b50335f806101000a81548173ffffffffffffffffffffffffffffffffffffffff021916908373ffffffffffffffffffffffffffffffffffffffff160217905550611103806100765f395ff3fe608060405260043610610085575f3560e01c806389a78f1a1161005857806389a78f1a146101215780638da5cb5b1461015f578063d43121ad14610189578063db22b28d146101b3578063e3393f68146101dd57610085565b806315ac534d1461008957806315b197701461009f57806335c1d349146100c95780634304684414610105575b5f80fd5b348015610094575f80fd5b5061009d610205565b005b3480156100aa575f80fd5b506100b36102ad565b6040516100c09190610a3e565b60405180910390f35b3480156100d4575f80fd5b506100ef60048036038101906100ea9190610a8e565b6102bf565b6040516100fc9190610af8565b60405180910390f35b61011f600480360381019061011a9190610b47565b6102fa565b005b34801561012c575f80fd5b5061014760048036038101906101429190610b9c565b610636565b60405161015693929190610be5565b60405180910390f35b34801561016a575f80fd5b50610173610687565b6040516101809190610af8565b60405180910390f35b348015610194575f80fd5b5061019d6106aa565b6040516101aa9190610c1a565b60405180910390f35b3480156101be575f80fd5b506101c76106b0565b6040516101d49190610c1a565b60405180910390f35b3480156101e8575f80fd5b5061020360048036038101906101fe9190610b47565b6106b6565b005b5f8054906101000a900473ffffffffffffffffffffffffffffffffffffffff1673ffffffffffffffffffffffffffffffffffffffff163373ffffffffffffffffffffffffffffffffffffffff1614610292576040517f08c379a000000000000000000000000000000000000000000000000000000000815260040161028990610c8d565b60405180910390fd5b5f60035f6101000a81548160ff021916908315150217905550565b60035f9054906101000a900460ff1681565b600581815481106102ce575f80fd5b905f5260205f20015f915054906101000a900473ffffffffffffffffffffffffffffffffffffffff1681565b60035f9054906101000a900460ff16610348576040517f08c379a000000000000000000000000000000000000000000000000000000000815260040161033f90610cf5565b60405180910390fd5b5f341161038a576040517f08c379a000000000000000000000000000000000000000000000000000000000815260040161038190610d5d565b60405180910390fd5b60018160ff16148061039f575060028160ff16145b6103de576040517f08c379a00000000000000000000000000000000000000000000000000000000081526004016103d590610dc5565b60405180910390fd5b5f60045f3373ffffffffffffffffffffffffffffffffffffffff1673ffffffffffffffffffffffffffffffffffffffff1681526020019081526020015f206001015414610460576040517f08c379a000000000000000000000000000000000000000000000000000000000815260040161045790610e2d565b60405180910390fd5b60405180606001604052803373ffffffffffffffffffffffffffffffffffffffff1681526020013481526020018260ff1681525060045f3373ffffffffffffffffffffffffffffffffffffffff1673ffffffffffffffffffffffffffffffffffffffff1681526020019081526020015f205f820151815f015f6101000a81548173ffffffffffffffffffffffffffffffffffffffff021916908373ffffffffffffffffffffffffffffffffffffffff160217905550602082015181600101556040820151816002015f6101000a81548160ff021916908360ff160217905550905050600533908060018154018082558091505060019003905f5260205f20015f9091909190916101000a81548173ffffffffffffffffffffffffffffffffffffffff021916908373ffffffffffffffffffffffffffffffffffffffff16021790555060018160ff16036105ca573460015f8282546105be9190610e78565b925050819055506105e3565b3460025f8282546105db9190610e78565b925050819055505b3373ffffffffffffffffffffffffffffffffffffffff167f9f6b4cced64244a64465098f682029975b1614400b96bc6bd12c668083719166823460405161062b929190610eab565b60405180910390a250565b6004602052805f5260405f205f91509050805f015f9054906101000a900473ffffffffffffffffffffffffffffffffffffffff1690806001015490806002015f9054906101000a900460ff16905083565b5f8054906101000a900473ffffffffffffffffffffffffffffffffffffffff1681565b60025481565b60015481565b5f8054906101000a900473ffffffffffffffffffffffffffffffffffffffff1673ffffffffffffffffffffffffffffffffffffffff163373ffffffffffffffffffffffffffffffffffffffff1614610743576040517f08c379a000000000000000000000000000000000000000000000000000000000815260040161073a90610c8d565b60405180910390fd5b60035f9054906101000a900460ff1615610792576040517f08c379a000000000000000000000000000000000000000000000000000000000815260040161078990610f1c565b60405180910390fd5b60018160ff1614806107a7575060028160ff16145b6107e6576040517f08c379a00000000000000000000000000000000000000000000000000000000081526004016107dd90610f84565b60405180910390fd5b7f0955d2cf30038475094a6fec908709e66568a2da6b39d82d68d50cdb146eac89816040516108159190610fa2565b60405180910390a15f4790505f60018360ff161461083557600254610839565b6001545b90505f5b6005805490508110156109d8575f6005828154811061085f5761085e610fbb565b5b905f5260205f20015f9054906101000a900473ffffffffffffffffffffffffffffffffffffffff1690505f60045f8373ffffffffffffffffffffffffffffffffffffffff1673ffffffffffffffffffffffffffffffffffffffff1681526020019081526020015f206040518060600160405290815f82015f9054906101000a900473ffffffffffffffffffffffffffffffffffffffff1673ffffffffffffffffffffffffffffffffffffffff1673ffffffffffffffffffffffffffffffffffffffff16815260200160018201548152602001600282015f9054906101000a900460ff1660ff1660ff168152505090508560ff16816040015160ff16036109c3575f848683602001516109719190610fe8565b61097b9190611056565b90508273ffffffffffffffffffffffffffffffffffffffff166108fc8290811502906040515f60405180830381858888f193505050501580156109c0573d5f803e3d5ffd5b50505b505080806109d090611086565b91505061083d565b5060055f6109e691906109eb565b505050565b5080545f8255905f5260205f2090810190610a069190610a09565b50565b5b80821115610a20575f815f905550600101610a0a565b5090565b5f8115159050919050565b610a3881610a24565b82525050565b5f602082019050610a515f830184610a2f565b92915050565b5f80fd5b5f819050919050565b610a6d81610a5b565b8114610a77575f80fd5b50565b5f81359050610a8881610a64565b92915050565b5f60208284031215610aa357610aa2610a57565b5b5f610ab084828501610a7a565b91505092915050565b5f73ffffffffffffffffffffffffffffffffffffffff82169050919050565b5f610ae282610ab9565b9050919050565b610af281610ad8565b82525050565b5f602082019050610b0b5f830184610ae9565b92915050565b5f60ff82169050919050565b610b2681610b11565b8114610b30575f80fd5b50565b5f81359050610b4181610b1d565b92915050565b5f60208284031215610b5c57610b5b610a57565b5b5f610b6984828501610b33565b91505092915050565b610b7b81610ad8565b8114610b85575f80fd5b50565b5f81359050610b9681610b72565b92915050565b5f60208284031215610bb157610bb0610a57565b5b5f610bbe84828501610b88565b91505092915050565b610bd081610a5b565b82525050565b610bdf81610b11565b82525050565b5f606082019050610bf85f830186610ae9565b610c056020830185610bc7565b610c126040830184610bd6565b949350505050565b5f602082019050610c2d5f830184610bc7565b92915050565b5f82825260208201905092915050565b7f4f6e6c7920746865206f776e65722063616e2063616c6c20746869732e0000005f82015250565b5f610c77601d83610c33565b9150610c8282610c43565b602082019050919050565b5f6020820190508181035f830152610ca481610c6b565b9050919050565b7f42657474696e6720697320636c6f7365642e00000000000000000000000000005f82015250565b5f610cdf601283610c33565b9150610cea82610cab565b602082019050919050565b5f6020820190508181035f830152610d0c81610cd3565b9050919050565b7f596f75206d75737420626574206120706f73697469766520616d6f756e742e005f82015250565b5f610d47601f83610c33565b9150610d5282610d13565b602082019050919050565b5f6020820190508181035f830152610d7481610d3b565b9050919050565b7f496e76616c696420666967687465722e000000000000000000000000000000005f82015250565b5f610daf601083610c33565b9150610dba82610d7b565b602082019050919050565b5f6020820190508181035f830152610ddc81610da3565b9050919050565b7f596f75206861766520616c726561647920706c616365642061206265742e00005f82015250565b5f610e17601e83610c33565b9150610e2282610de3565b602082019050919050565b5f6020820190508181035f830152610e4481610e0b565b9050919050565b7f4e487b71000000000000000000000000000000000000000000000000000000005f52601160045260245ffd5b5f610e8282610a5b565b9150610e8d83610a5b565b9250828201905080821115610ea557610ea4610e4b565b5b92915050565b5f604082019050610ebe5f830185610bd6565b610ecb6020830184610bc7565b9392505050565b7f42657474696e67206973207374696c6c206f70656e2e000000000000000000005f82015250565b5f610f06601683610c33565b9150610f1182610ed2565b602082019050919050565b5f6020820190508181035f830152610f3381610efa565b9050919050565b7f496e76616c69642077696e6e65722e00000000000000000000000000000000005f82015250565b5f610f6e600f83610c33565b9150610f7982610f3a565b602082019050919050565b5f6020820190508181035f830152610f9b81610f62565b9050919050565b5f602082019050610fb55f830184610bd6565b92915050565b7f4e487b71000000000000000000000000000000000000000000000000000000005f52603260045260245ffd5b5f610ff282610a5b565b9150610ffd83610a5b565b925082820261100b81610a5b565b9150828204841483151761102257611021610e4b565b5b5092915050565b7f4e487b71000000000000000000000000000000000000000000000000000000005f52601260045260245ffd5b5f61106082610a5b565b915061106b83610a5b565b92508261107b5761107a611029565b5b828204905092915050565b5f61109082610a5b565b91507fffffffffffffffffffffffffffffffffffffffffffffffffffffffffffffffff82036110c2576110c1610e4b565b5b60018201905091905056fea26469706673582212209b8aee8343461f39ab67b392394f6054263c0a2eaa85a4a3d0bd3a02b6b7f5fc64736f6c63430008150033",
  "immutableReferences": {},
  "source": "// SPDX-License-Identifier: MIT\npragma solidity ^0.8.21;\n\ncontract FighterPredictionGame {\n    struct Bet {\n        address better;\n        uint256 amount;\n        uint8 fighter; // Fighter ID (1 or 2)\n    }\n\n    address public owner;\n    uint256 public totalBetsFighter1;\n    uint256 public totalBetsFighter2;\n    bool public bettingOpen = true;\n    mapping(address => Bet) public bets;\n    address[] public participants;\n\n    event BetPlaced(address indexed better, uint8 fighter, uint256 amount);\n    event MatchResult(uint8 winner);\n\n    constructor() {\n        owner = msg.sender;\n    }\n\n    modifier onlyOwner() {\n        require(msg.sender == owner, \"Only the owner can call this.\");\n        _;\n    }\n\n    function placeBet(uint8 _fighter) public payable {\n        require(bettingOpen, \"Betting is closed.\");\n        require(msg.value > 0, \"You must bet a positive amount.\");\n        require(_fighter == 1 || _fighter == 2, \"Invalid fighter.\");\n        require(bets[msg.sender].amount == 0, \"You have already placed a bet.\");\n\n        bets[msg.sender] = Bet(msg.sender, msg.value, _fighter);\n        participants.push(msg.sender);\n\n        if (_fighter == 1) {\n            totalBetsFighter1 += msg.value;\n        } else {\n            totalBetsFighter2 += msg.value;\n        }\n\n        emit BetPlaced(msg.sender, _fighter, msg.value);\n    }\n\n    function closeBetting() public onlyOwner {\n        bettingOpen = false;\n    }\n\n    function finalizeMatch(uint8 _winner) public onlyOwner {\n        require(!bettingOpen, \"Betting is still open.\");\n        require(_winner == 1 || _winner == 2, \"Invalid winner.\");\n\n        emit MatchResult(_winner);\n\n        uint256 rewardPool = address(this).balance;\n        uint256 totalBets = _winner == 1 ? totalBetsFighter1 : totalBetsFighter2;\n\n        for (uint256 i = 0; i < participants.length; i++) {\n            address participant = participants[i];\n            Bet memory bet = bets[participant];\n\n            if (bet.fighter == _winner) {\n                uint256 reward = (bet.amount * rewardPool) / totalBets;\n                payable(participant).transfer(reward);\n            }\n        }\n\n        delete participants;\n    }\n}\n",
  "sourcePath": "/workspaces/empty/my-project/contracts/FighterPredictionGame.sol",
  "compiler": {
    "name": "solc",
    "version": "0.8.21+commit.d9974bed.Emscripten.clang"
  },
  "schemaVersion": "3.4.16",
  "updatedAt": "2024-11-25T20:02:07.419Z",
  "devdoc": {
    "kind": "dev",
    "methods": {},
    "version": 1
  },
  "userdoc": {
    "kind": "user",
    "methods": {},
    "version": 1
  }
}